:020000040800F2
:10000000900E00209D010008932C0008F92600089E
:10001000912C0008CD020008EF4700080000000006
:10002000000000000000000000000000A32C0008F9
:10003000FD03000800000000A12C0008A52C00080A
:10004000B7010008B7010008B7010008B7010008B0
:10005000B7010008B7010008FF030008B701000856
:10006000B7010008B7010008B7010008B701000890
:10007000B7010008B7010008B7010008B701000880
:10008000B7010008B7010008B7010008B701000870
:10009000B7010008B7010008B7010008B701000860
:1000A000B7010008B7010008B7010008B701000850
:1000B000B7010008B7010008B7010008B701000840
:1000C000B7010008B7010008B7010008B701000830
:1000D000B7010008B7010008D5320008B7010008D1
:1000E000B7010008B7010008B7010008B701000810
:1000F000B7010008B7010008B7010008B701000800
:10010000B7010008B7010008B7010008B7010008EF
:10011000B7010008B7010008B7010008612D000809
:10012000B7010008B7010008B7010008B7010008CF
:10013000B7010008B7010008B7010008B7010008BF
:10014000B7010008B7010008B7010008952C0008A6
:10015000B7010008B7010008B7010008B70100089F
:10016000B7010008B7010008B7010008B70100088F
:10017000B7010008B7010008B7010008000000003F
:10018000B7010008B7010008DFF80CD000F08CF8C8
:100190000048004781480008900E0020064880472C
:1001A00006480047FEE7FEE7FEE7FEE7FEE7FEE75C
:1001B000FEE7FEE7FEE7FEE7452D0008890100089F
:1001C0002DE9F05F0546002092469B46884606468C
:1001D000814640241BE0284641464746224600F01F
:1001E00053F853465A46C01A914110D31146184647
:1001F000224600F03AF82D1A67EB01084F462246D6
:100200000120002100F031F817EB00094E41201EBB
:10021000A4F10104DFDC484631462A464346BDE8E6
:10022000F09F40EA01039B0703D009E008C9121FB1
:1002300008C0042AFAD203E011F8013B00F8013BA0
:10024000521EF9D27047D2B201E000F8012B491ECC
:10025000FBD270470022F6E710B513460A46044663
:100260001946FFF7F0FF204610BD202A04DB203A94
:1002700000FA02F1002070479140C2F1200320FAF9
:1002800003F3194390407047202A04DB203A21FAF7
:1002900002F00021704721FA02F3D040C2F120029F
:1002A0009140084319467047064C074D06E0E06848
:1002B00040F0010394E8070098471034AC42F6D3AD
:1002C000FFF766FF7C4900089C490008FEE7000034
:1002D00070B50546D0F87C03C46994F84E00032835
:1002E0001BD0042818D1217B284603F0A9FC012843
:1002F00012D1217B284603F08EFCA16A814214D0E2
:10030000628B824211D2091AA162216A08442062DA
:100310005FF0030084F84E0070BD237B628B28469B
:10032000216A02F0F9FF0420F4E7002084F84E006F
:10033000284603F055F970BDF8B50646D0F87C03A1
:100340000125C46994F84D0001280AD0022807D17C
:10035000617B304603F074FC012811D002281AD0CA
:10036000F8BD228B606A0095637B904200D882B210
:100370003046E16902F0E0FF022084F84D00F8BD4C
:10038000208B626A0021824208D9121A6262E369F4
:100390001844E06103D084F84D50F8BD616284F8E0
:1003A0004D10304603F01FF9F8BD000010B50022D3
:1003B0004FEA020100EB8203521CC3F884130F2A98
:1003C000F8D300224FF400738418521C84F81C11D7
:1003D0009A42F9D30170417001228270C0F8C413AF
:1003E000027640238371417680F81C1380F81D2328
:1003F00080F81F1380F81E13002010BD70470120E5
:1004000000F032B87047A122027421224274002207
:10041000428282820722C28203F009B990F8351025
:10042000022903D08021416501207047052180F811
:1004300035100068016821F001010160002070475B
:1004400070B5044600F0FEF80546601C02D0044872
:100450000078044400F0F6F8401BA042FAD370BDC7
:100460000800002070470000044910B50A680242E5
:1004700002D00860FFF7F6FF10BD0000143C0140F9
:100480002DE9F84F00224FF0010803254FF00F0E21
:100490000B6808FA02F42340A3426ED14E68012E85
:1004A00005D0022E03D0112E01D0122E12D1866853
:1004B0004FEA420C05FA0CF7BE43CF6807FA0CF777
:1004C000374387604668A6430C79C4F30014944010
:1004D00034434460C668570005FA07FC8C6826EA76
:1004E0000C06BC403443C4604C68022C01D0122C72
:1004F00013D1D40800EB8404A346D4F82090540709
:100500004FEAD46A0EFA0AF629EA06090E6906FAD3
:100510000AF646EA0906CBF8206006680C7926EA56
:100520000C0604F00304BC40344304604C68E4004F
:1005300065D5364C266846F480462660246822F04D
:10054000030604F480440094314C3444A446D4F8A7
:1005500008489607370F0EFA07F6B4432D4EB042FF
:1005600001D1002624E02C4EB04201D101261FE02B
:100570002A4EB04202D102261AE040E0284EB04294
:1005800001D1032614E0274EB04201D104260FE02A
:10059000254EB04201D105260AE0244EB04201D1D9
:1005A000062605E0224EB04201D1072600E00826CB
:1005B000BE402643CCF808681E4E34684F689C4302
:1005C000FF0300D51C4334601A4C241D26684F6875
:1005D0009E43BF0300D51E432660164E083634687E
:1005E0004F689C43FF0200D51C433460114E0C360B
:1005F00034684F689C43BF0200D51C433460521CD2
:10060000102AFFF445AFBDE8F88F000044380240DF
:100610000030014000000240000402400008024097
:10062000000C02400010024000140240001802407A
:10063000001C0240003C01400AB18161704709047E
:10064000FBE70000014880687047000008000020B8
:10065000D0F8C00203F0B1BAD0F8C00203F0B7BAC4
:10066000006803F015BE006803F016BE01EB8101BF
:1006700000EBC10090F85C00704701EB810100EBDA
:10068000C100C06C704710B5044690F8B80201284C
:1006900009D0012084F8B802206803F008FE002089
:1006A00084F8B80210BD022010BD2DE9FE430546B6
:1006B000DDE90B7095F8B842DDF828C0012C1CD09C
:1006C00001EB81044FF0010905EBC40485F8B892F1
:1006D000002684F83D6084F83830A4F8400084F89F
:1006E000391084F83F7002F07F0884F83A805FEA9E
:1006F000026805D584F83B9004E00220BDE8FE8343
:1007000084F83B6084F83CC0CDF800C0CDE90170AE
:10071000286803F02DFE85F8B862EFE770472DE9F1
:10072000F0030E46DDE906C9DDE9087401EB860138
:1007300000EBC101022581F83B2081F83F30BCF17C
:10074000000F0AD081F8425000246BB1012B2DD04C
:10075000022B12D0032B16D10FE04FF0030881F8C3
:10076000428081F83D40EFE7BCF1010F0BD152B957
:10077000CFB9012281F8512003E0A2B191F85020B5
:10078000A2B181F84250C1E9119781F85C40CC6474
:1007900081F8396081F85D40027C0068BDE8F003B3
:1007A000383103F061BE91F85120E9E781F8424009
:1007B000E9E700002DE9F04104460068064603F031
:1007C00072FD01287ED1206803F07DFF002879D0DA
:1007D000206803F078FF800203D521684FF40010F1
:1007E0004861206803F06FFFC00203D521684FF411
:1007F00080104861206803F066FF400103D521683E
:100800004FF080604861206803F05DFF800702D5EB
:10081000216802204861206803F055FF80000ED552
:1008200021684FF000504861D6F84004C00706D157
:100830002046FFF711FF0121206803F029FF2068FF
:1008400003F041FFC00102D5204601F0D3FE20682D
:1008500003F039FF000705D5204600F0D2F82168E3
:1008600008204861206803F02EFF800123D520680E
:1008700003F0F6FD074600254FF0010814E000BF25
:1008800005F00F0108FA01F038420CD006EB4510D4
:10089000D0F80005E9B20004204602D501F04CFC76
:1008A00001E001F085FD6D1CA068A842E8D8216830
:1008B0004FF000704861206803F005FFC043C00698
:1008C0000ED400E00CE02068816921F01001816104
:1008D000204601F0D9FE2068816941F01001816154
:1008E000BDE8F08170B58AB0040005D094F8B90273
:1008F0002568002618B107E001200AB070BD84F811
:10090000B862204600F028F8032084F8B902E86BAA
:10091000C00500D42661206803F064FC04F11001D6
:1009200028220D466846FFF77CFC94E80F0003F090
:1009300003FC0121206803F0F1FE282229466846C5
:10094000FFF76FFC94E80F0003F036FE012084F8F7
:10095000B9020020D1E7000030B587B00446142169
:100960006846FFF777FC2068B0F1A04F38D11D48EA
:100970000024016841F00101016000681A4D00F097
:10098000010005904FF40070CDE900046946284647
:100990000294FFF775FD4FF4E05000900220CDE97E
:1009A00001040A20CDE9034069462846FFF768FDA7
:1009B0000C48001D016841F08001016009481430B5
:1009C000016841F4804101600068002200F4804029
:1009D00005901146432000F0A5FB432000F094FB56
:1009E00007B030BD3038024000000240D0F8C002ED
:1009F00003F070B9D0F8C00203F070B9006803F0DA
:100A000074BED0F8C00203F01FB910B5044690F8C8
:100A1000B80201280DD0012084F8B802206803F044
:100A20000FFC0121206803F0F5FB002084F8B802D8
:100A300010BD022010BD10B5044690F8B802012880
:100A400009D0012084F8B802206803F07FFE00205E
:100A500084F8B80210BD022010BD000070B504007B
:100A600025D094F83D00002520B984F83C5020465C
:100A700000F0B8F8242084F83D002068016821F0D7
:100A8000010101602068016841F4004101602068B3
:100A9000016821F40041016000F0DCFC4D4A61680E
:100AA000914201D84C4900E04C49884201D20120D2
:100AB00070BD4B492368B0FBF1F15E6826F03F063C
:100AC0000E435E606368934206D94FF496735943B0
:100AD0004FF47A73B1FBF3F12368491C1E6A26F0C8
:100AE0003F06314319626168914210D84900401EA7
:100AF000B0FBF1F2521CC2F30B02042A01D2042013
:100B000022E0B0FBF1F0401CC0F30B001CE0A26837
:100B1000F2B301EBC10303EB0116431EB3FBF6F383
:100B20005B1C43F480431B0549D092B301EBC10227
:100B300002EB0111401EB0FBF1F0401CC0F30B00B2
:100B400040F4804040F400402168CA694CF6FF73CD
:100B50009A431043C861D4E9071001432068026832
:100B600022F0C00211430160D4E90301014320686F
:100B7000826848F2FF339A4311438160D4E905014A
:100B800008432168CA6822F0FF021043C86001E0F0
:100B90000EE016E02068016841F001010160256463
:100BA000202084F83D00256384F83E50002070BD6D
:100BB00001EB4106431EB3FBF6F35B1CB3E70120D8
:100BC000C2E701EB4101401EB0FBF1F0401CC0F355
:100BD0000B00B7E7A086010080841E0000093D00DD
:100BE00040420F0010B586B0044614216846FFF756
:100BF00031FB14492068884221D113480021026842
:100C000042F002020260006800F0020005904FF41A
:100C100010700090122001900120CDE90201042003
:100C2000049069460948FFF72BFC0748103001681B
:100C300041F400110160006800F40010059006B056
:100C400010BD000000540040303802400004024053
:100C50002DE9FF4104460068816800917749784E8C
:100C60004FF04027884201D1324600E03A46926870
:100C7000019240688846029001D1304600E0384633
:100C80004068039060684FF00105B0F5007F1CD00C
:100C9000D8B1900705D50398000602D5204601F08B
:100CA0005DFD0098C0070FD0029840067FD52168EF
:100CB0002046CA68E16A8B1CE3620A80618E491E85
:100CC0006186618E002967D071E00098800719D590
:100CD0000298000616D5616A20468A1C6262226864
:100CE0000988D160618D491E6185618D51B90168A6
:100CF0004A6822F0A0024A60418E19B980F841503A
:100D000000F0A0F80198C00705D00398400602D56E
:100D1000204601F0F3FC0198400622D50398800696
:100D20001FD52168414501D1304600E03846406872
:100D300020F0600101D1304600E038464160206873
:100D4000416821F0A00141602068C168806801907D
:100D500084F84150606C40F002006064204600F06E
:100D600072F80098000767D50298800664D520685D
:100D7000416821F0A00141602168414501D1304620
:100D800000E03846406820F0600000D03E467060C9
:100D900020688068009043E001684A6822F06002A1
:100DA0004A60418D19B980F8415000F04BF8009825
:100DB00040061ED5029880061BD52068416821F0A8
:100DC000600141602168414501D1304600E038466C
:100DD000406820F0A00101D1304600E03846416073
:100DE00084F84150606C40F002006064204600F0DE
:100DF0002AF8019800071FD5039880061CD52168A2
:100E0000414501D1304600E03846406820F0A0005E
:100E100000D03E4670602068416821F0600141606A
:100E200084F84150606C40F00400606404B02046D7
:100E3000BDE8F04100F007B8BDE8FF810038004090
:100E400000340040704770472DE9F047040005D09A
:100E500094F841004FF0000818B109E00120BDE806
:100E6000F08784F8408051486063204600F0A6F87F
:100E7000022684F841602068C16940F6BF77B94313
:100E8000C1612068066260694FF4007902282FD0A2
:100E9000E06870B12025A068202800D86D000120EE
:100EA00000F072F9216949451FD1E16819B1A90023
:100EB00002E01025EFE7E900B0FBF1F000EB800065
:100EC00061694000B0FBF1F0401D0A21B0FBF1F078
:100ED00000F00101401A40080902821EFE2A09D3CF
:100EE000606C40F010006064B8E7B0FBF5F0E5E737
:100EF0000220002122690843024320680262D4E9EB
:100F000001010843A269E168114308432168CA69E5
:100F1000BA43104340F40060C861206A01283AD106
:100F20002348606323482168234A4FF040238142CD
:100F300001D1114600E01946C96921EA070101D132
:100F4000154600E01D46E9612168814201D1114644
:100F500000E019460E622568854201D1114600E085
:100F60001946C9698EB2616849451BD0D1B10021CB
:100F70002789B4F80CC047EA0C07B4F818C04CEA4B
:100F8000010C47EA0C07B9B2314341F400618542D4
:100F900000D01A46D161C4F84480012084F8410091
:100FA00000205CE74FF48071E2E70000BD270008F5
:100FB000510C0008003800400034004070B586B085
:100FC000044614216846FFF745F91C492068884209
:100FD00032D11B480024016841F4004101600068DF
:100FE00000F40040059016481038016841F00101F6
:100FF0000160016801F001010591016841F00401FF
:1010000001600068022500F00400059010200090A7
:10101000CDE901540626CDE9034669460948FFF7A4
:101020002FFA4FF4A4500090CDE90154CDE90346C6
:1010300069460548FFF724FA06B070BD003C004041
:1010400040380240000002400008024070477047EC
:1010500002488168027811448160704708000020CE
:101060000B4810B5016841F400710160016841F45A
:1010700080610160016841F480710160032000F02B
:1010800071F8002000F006F800F024F8002010BDF0
:10109000003C024070B50D4D04464FF47A7128783B
:1010A000B1FBF0F00A490968B1FBF0F000F044FC34
:1010B00048B9102C07D200222146501E00F032F809
:1010C00000206C6070BD012070BD00000800002091
:1010D000140000200B4882B0016841F48041016097
:1010E000006800F4804000900648001F016841F04D
:1010F00080510160006800F080500090072002B02D
:1011000000F030B844380240002809DB00F01F022C
:10111000012191404009800000F1E020C0F8001159
:1011200070470000F0B40E4B1B680C46C3F302235B
:10113000C3F10705042D00D90425191D072901D283
:10114000002300E0DB1E012606FA05F1491E2140BE
:1011500099409E40761E16403143F0BC03F048BBD8
:101160000CED00E0064900F0070208684FF6FF03A7
:10117000184040EA0220034A10430860704700000C
:101180000CED00E00000FA0501460020012907D11E
:101190001049096811F4000103D0012900D10E485B
:1011A00070470C48001F01680068490200F03F00CA
:1011B00001D50A4900E00A49064AB1FBF0F07C3249
:1011C0001168C1F3881141431068C0F30270B1FB8C
:1011D000F0F07047083802400080BB0000127A002F
:1011E0000024F4002DE9F843054600684FF001099A
:1011F000C1074FF0000601D1400727D5DFF80C8169
:10120000C8F86860FFF71EFA0746414C05E000BFCA
:10121000FFF718FAC01B022857D820680001F7D43E
:1012200068688101287A41EA007039498431086090
:10123000C8F86890FFF706FA074604E0FFF702FADD
:10124000C01B022841D820680001F7D52878800704
:1012500052D52F484030016841F08051016000684C
:101260002C4C00F080500090206840F4807020608A
:10127000FFF7E8F9074604E0FFF7E4F9C01B02288E
:1012800023D82068C005F7D5214C7034206810F4AD
:10129000407020D0A98901F4407181421BD02068A0
:1012A0001D4920F44070C1F800900E602060206855
:1012B000C00710D0FFF7C6F9064641F2883707E0AD
:1012C000FFF7C0F9801BB84202D90320BDE8F883BC
:1012D00020688007F4D5E9680D48C1F30122083081
:1012E000032A0BD0016821F4F81101602068A98954
:1012F000C1F30B01084320600020E7E70268074BB9
:1013000022F4F81219400A430260EFE70000474256
:101310000038024000700040400E4742FFFCFF0FC3
:101320002DE9F0470E46050065D0DFF81481D8F8A6
:101330000000F7B200F00F00B04207D288F800704A
:10134000D8F8000000F00F00B04254D128683D4C9E
:10135000810712D5400703D5206840F4E050206093
:101360002878000703D5206840F46040206020689A
:10137000A96820F0F000084320602878C0072DD02D
:10138000304968680839012812D0022813D0032890
:1013900011D00968890700292DDA216821F003019D
:1013A00001432160FFF74EF9814641F2883A0EE091
:1013B00009688903EFE709688901ECE7FFF742F95B
:1013C000A0EB0901514502D90320BDE8F087206850
:1013D000696800F00C00B0EB810FEFD1D8F8001075
:1013E000404601F00F01B14207D90770006800F0D4
:1013F0000F00B04201D00120E7E72878400705D56B
:101400002068E96820F4E05008432060287800074D
:1014100006D52068296920F4604040EAC1002060B8
:1014200000F038F82168084AC1F30311515CC84044
:101430000649086006480068FFF72CFE0020C4E754
:10144000003C0240083802406049000814000020B7
:101450000C0000200448054900680968044AC1F3EB
:101460008221515CC84070471400002008380240B7
:10147000704900080448054900680968044AC1F336
:101480004231515CC84070471400002008380240C7
:1014900070490008154810B5006810F00C02144897
:1014A00013D04110042A0FD0082A0ED10F4C241F4C
:1014B0002268236802F03F025B0207D52068C0F370
:1014C0008810A0FB010106E0084610BD2168C1F3A9
:1014D0008811A1FB00010023FEF772FE2168C1F311
:1014E0000141491C4900B0FBF1F010BD0838024031
:1014F0000024F4002DE9F84F04006ED02078DFF8C6
:101500003C93C007A9F104054AD009F10400016821
:10151000C1F38101012908D00068C0F381000228CD
:101520000AD1D9F80000400206D52868800337D5D3
:1015300060680028E1D033E06068B0F5803F10D0EB
:10154000B0F5A02F286810D020F4803028602868DB
:1015500020F4802028606068A8B1FFF773F8064681
:101560000DE0286840F48030F4E740F480202860E3
:10157000F7E700BFFFF766F8801B642873D8286878
:101580008003F7D50CE0FFF75DF8064605E000BFE5
:10159000FFF758F8801B6428F0D828688003F7D438
:1015A0002078DFF89C8280074FF0000A3ED5A348E0
:1015B000001D016811F00C0F08D00068C0F3810015
:1015C00002280BD1D9F80000400207D42868800710
:1015D00016D5E068012800D112E02BE1E068B8B12F
:1015E0000120C8F80000FFF72DF8064605E000BF0F
:1015F000FFF728F8801B0228C0D828688007F7D595
:101600002868216920F0F80040EAC10028600DE058
:10161000C8F800A0FFF716F8064604E0FFF712F836
:10162000801B02281FD828688007F7D4207800077D
:1016300022D5824E83486169703671B10121016003
:10164000FFF700F8074604E0FEF7FCFFC01B022886
:1016500009D830688007F7D50EE0C0F800A0FEF783
:10166000F1FF074605E082E0FEF7ECFFC01B022811
:101670007DD830688007F7D42078400768D5DFF838
:10168000BCB100270BF13C0BDBF80000C0000BD411
:10169000DBF8001041F08051CBF80010DBF80000BF
:1016A000012700F080500090674E3068C00510D4CC
:1016B000306840F480703060FEF7C4FF009005E0B1
:1016C000FEF7C0FF0099401A022850D83068C005C4
:1016D000F6D55A4EA0686C3601280FD00528306820
:1016E00010D020F001003060306820F0040030603D
:1016F000A068B8B1FEF7A6FF00900FE0306840F098
:101700000100F4E740F004003060F7E7FEF79AFFCD
:101710000099411A41F28830814266D830688007CA
:10172000F4D50EE0FEF78EFF009007E0FEF78AFF8B
:101730000099411A41F28830814256D830688007BA
:10174000F4D42FB1DBF8001021F08051CBF8001059
:10175000A069C8B33949091D0968C1F3810102298B
:101760004AD00228504607D0C8F8600000E03CE0AC
:10177000FEF768FF04463BE04746C8F86000FEF706
:1017800061FF064605E000BFFEF75CFF801B0228F4
:101790002BD828688001F7D4D4E907010843A16A4F
:1017A0002A4A490802EB0141626A41EA8211084370
:1017B00094F82C1040EA0161C9F800100120386645
:1017C000FEF740FF044606E036E000BFFEF73AFFB2
:1017D000001B022809D828688001F7D52CE000BF3B
:1017E000FEF730FF001B022802D90320BDE8F88F66
:1017F00028688001F4D41FE00128F7D0D9F8000050
:10180000E26900F48001914214D1226A00F03F01A4
:1018100091420FD147F6C071626A0140914209D1ED
:10182000A26A00F44031914204D1E16A00F0706094
:10183000884201D00120D9E70020D7E704380240D0
:1018400000004742800E4742007000400000FFFF4A
:1018500070B5040005D00025A56294F8510010B1C0
:1018600006E0012070BD84F85050204600F030F8AA
:10187000022084F851002068016821F040010160D5
:10188000D4E901010843D4E9031211430843616913
:101890000843218B01F400710843E1690843216A80
:1018A0000843A16A084321680860A069042101EA8D
:1018B0001040616A0843216848602068C16921F4CA
:1018C0000061C1616565012084F85100002070BD90
:1018D00010B586B0044614216846FEF7BBFC1349D8
:1018E000206888421FD112480021026842F48052C9
:1018F0000260006800F4805005900D4814380268BA
:1019000042F001020260006800F001000590E02052
:1019100000900220CDE901010520CDE903106946C0
:101920000448FEF7ADFD06B010BD000000300140D8
:10193000443802400000024010B5401EB0F1807FE4
:1019400001D3012010BD4FF0E02460610F2160172A
:1019500002F04EFF0020A06107202061002010BD92
:101960007047704770B590F83C20012A32D00124AE
:1019700080F83C40022280F83D2003685A689D6848
:1019800022F070060A6832435A60134B02689A428A
:1019900014D0B2F1804F11D0104B9A420ED0104BA0
:1019A0009A420BD00F4B9A4208D00F4B9A4205D067
:1019B0000E4B9A4202D00E4B9A4204D1496825F050
:1019C00080031943916080F83D40002180F83C106D
:1019D000084670BD022070BD0000014000040040B8
:1019E00000080040000C004000040140004001409D
:1019F0000018004010B5040003D094F83D0010B169
:101A000007E0012010BD002084F83C00204600F0D3
:101A10000DF8022084F83D00211D206801F0A6F990
:101A2000012084F83D00002010BD000008B50C4ADC
:101A300001680C48914207D1016841F0040101603E
:101A4000006800F0040009E0074A914207D10168EC
:101A500041F020010160006800F02000009008BD06
:101A600000080040403802400014004070B50446B1
:101A700090F83C00012817D0012584F83C50022042
:101A800084F83D002068826822F0770222F47F42C9
:101A900082600868502830D00DDC20284DD005DC4D
:101AA00098B310283BD148E0022070BD302844D0C4
:101AB000402834D139E0602828D0702806D0B0F50D
:101AC000805F2CD0B0F5005F29D10AE0CB68D1E966
:101AD0000121206801F0AEF92068816841F07701AA
:101AE00009E0CB68D1E90121206801F0A3F9206861
:101AF000816841F48041816011E0CA6849682068CA
:101B000001F06CFA5021206807E016E0CA684968C5
:101B1000206801F074FA6021206801F095F984F8DA
:101B20003D50002084F83C0070BDCA6849682068B8
:101B300001F054FA40212068EFE722680146104680
:101B4000EBE7704770B50446006801694FF0000587
:101B5000C943890715D4C168C943890711D4E91E4F
:101B6000016101202077206880698007204602D02B
:101B7000FFF7E7FF04E000F0C3F8204600F045F966
:101B8000257720680169C943490717D4C168C9434B
:101B9000490713D46FF00401016102202077206807
:101BA000806910F4407F204602D0FFF7CAFF04E0AE
:101BB00000F0A6F8204600F028F925772068016992
:101BC000C943090716D4C168C943090712D46FF085
:101BD00008010161042020772068C0698007204641
:101BE00002D0FFF7AEFF04E000F08AF8204600F0D4
:101BF0000CF9257720680169C943C90617D4C16863
:101C0000C943C90613D46FF0100101610820207781
:101C10002068C06910F4407F204602D0FFF791FF92
:101C200004E000F06DF8204600F0EFF8257720681A
:101C30000169C943C90708D1C168C943C90704D1AB
:101C4000891E0161204600F0E1F820680169C9435E
:101C5000090609D4C168C943090605D46FF080019B
:101C600001612046FFF77CFE20680169C9434906EF
:101C700009D4C168C943490605D46FF04001016128
:101C8000204600F0C4F820680169C94389060BD4D6
:101C9000C168C943890607D46FF02001016120465D
:101CA000BDE87040FFF75DBE70BD000010B586B0A6
:101CB000044614216846FEF7CDFA0E492068884292
:101CC00015D10D480021026842F008020260006848
:101CD00000F0080005904FF4704000900220CDE91C
:101CE0000101CDE9031069460448FEF7C9FB06B0BF
:101CF00010BD00000008004030380240000C0240D7
:101D0000704770B5044690F83C000D4601280DD090
:101D1000012684F83C60022084F83D0042B1042A88
:101D200018D0082A2AD00C2A4DD139E0022070BDE3
:101D3000206801F091F82068816941F00801816113
:101D40002068816921F004018161206881692A6924
:101D5000114311E0206801F0AFF82068816941F477
:101D6000006181612068816921F48061816120685E
:101D700081692A6941EA0221816124E0206801F039
:101D8000D1F82068C16941F00801C1612068C169CA
:101D900021F00401C1612068C1692A69114311E081
:101DA000206801F0F3F82068C16941F40061C16165
:101DB0002068C16921F48061C1612068C1692A6914
:101DC00041EA0221C16184F83D60002084F83C00B2
:101DD00070BD10B5040003D094F83D0010B107E0C9
:101DE000012010BD002084F83C00204600F00CF8D3
:101DF000022084F83D00211D206800F0B7FF01207B
:101E000084F83D00002010BD704770477047704750
:101E10007047000070B5026804461068D1685369C5
:101E200010F00F0F52D003F0010501F490762E430D
:101E30005FD0C20705D0CA0503D5E26B42F00102AC
:101E4000E263420705D5DA0703D0E26B42F00202F3
:101E5000E263820705D5DA0703D0E26B42F00402A1
:101E6000E263020707D501F020022A4303D0E26BA8
:101E700042F00802E263E26B002A33D0800604D508
:101E8000880602D5204601F0E2F820684069E16B3F
:101E9000C0F38010090700D428B3204601F0C9F828
:101EA0002068416949061AD5416921F04001416124
:101EB000606BA0B11B490165606BFEF7AFFA0028AB
:101EC00010D0606B016DBDE870400847830610D5E7
:101ED0008B060ED52046BDE8704001F0B8B820460C
:101EE000FFF796FF70BD2046FFF792FF0020E063EA
:101EF00070BD030606D50B0604D52046BDE870402C
:101F000001F084B94006F3D54806F1D5D1682046E2
:101F100021F04001D160202184F8391000F00BF944
:101F200070BD00002330000870B5040004D094F8A0
:101F30003900002510B106E0012070BD84F838504A
:101F4000204600F023F8242084F839002068C16876
:101F500021F40051C160204601F0C4F820680169F5
:101F600021F4904101612068416921F02A01416119
:101F70002068C16841F40051C160E563202084F805
:101F8000390084F83A00002070BD000010B586B01A
:101F9000044614216846FEF75DF91349206888421B
:101FA00020D112480021026842F400320260006829
:101FB00000F4003005900D481038026842F001022C
:101FC0000260006800F0010005900C2000900220E3
:101FD000CDE90101032003900720049069460448DD
:101FE000FEF74EFA06B010BD0044004040380240F3
:101FF0000000024090F83A30202B22D1F9B1F2B122
:1020000090F83830012B1CD081628285C285002176
:10201000C163222280F83A2080F838100168CA682B
:1020200042F48072CA6001684A6942F001024A6162
:102030000068C16841F02001C160002070470120A4
:10204000704702207047000010B5006808498842B8
:102050000CD1012207490848FFF7CCFF0A23BDE84D
:10206000104001220349044800F008B810BD0000E8
:102070000044004000000020B40100202DE9F84396
:10208000044690F839001F4616460D46202850D1C8
:10209000B5B1AEB194F8380001284AD0012084F8D7
:1020A00038004FF00008C4F83C80212084F8390043
:1020B000FEF7C8FAA6848146E68484F8388026E0D4
:1020C0000120BDE8F883E08C401EE084A0684B4608
:1020D000B0F5805F4FF000024FF08001204600977E
:1020E00003D001F0C4F8E8B90DE001F0C0F8C8B9B8
:1020F00028882168C0F308004860206908B16D1C79
:1021000005E0AD1C03E0216815F8010B4860E08C88
:102110000028D8D14B46002240212046009701F0EC
:10212000A6F808B10320CCE7202084F8390000206D
:10213000C7E70220C5E770472DE9F05F0746006852
:102140000E4600EB4114D4F808054FF0040942078D
:1021500001EB86004FF0050B4FF0100807EBC005B0
:1021600008D5C4F80895D4F80C0540F00200C4F86E
:102170000C0542E0D4F80805C0050DD54FF4807079
:10218000C4F80805072085F85D00D4F80C0540F078
:102190000200C4F80C0517E0D4F80805800601D544
:1021A000202028E0D4F808054FF0080A00070FD5D2
:1021B000D4F80C0540F00200C4F80C0585F85DB0B9
:1021C000C4F80885C4F808A5386802F070F814E06F
:1021D000D4F80805400510D5D4F80C0540F00200ED
:1021E000C4F80C05386802F062F8C4F8088585F870
:1021F0005DA04FF48060C4F80805D4F80805800598
:102200000ED5D4F80C0540F00200C4F80C05314698
:1022100004F5A164386802F04AF84FF40070A4E0B5
:10222000D4F808054FF00001C0074FF0010242D07A
:10223000386930B1A86CD4F81035C3F31203C01A52
:10224000E86485F85D20A965C4F8082595F83F0085
:1022500030B1022804D0032811D0012818D023E07F
:10226000D4F80C0540F00200C4F80C05314604F522
:10227000A164386802F01BF8C4F8008014E0D4F8B8
:10228000000540F00050C4F8000585F85C2007E028
:1022900085F85C2095F8500080F0010085F850002A
:1022A00031463846FEF73AFA15F8500F80F0010033
:1022B0002870BDE8F09FD4F8080580073ED5D4F813
:1022C0000C0520F00200C4F80C0595F85D0002230F
:1022D00001280AD005280BD006280CD008280AD0DF
:1022E00003281AD007281BD01FE085F85C201CE0CB
:1022F00085F85CB019E0A86D401CA86503280CD9CE
:10230000A96585F85C9000BFD4F8000520F08040F6
:1023100040F00040C4F8000507E085F85C30F3E7C2
:10232000A86D401CA86585F85C90C4F8083595F840
:102330005C2031463846FEF7F1F9BAE7D4F80805D3
:10234000000614D5D4F80C0540F00200C4F80C05C2
:10235000A86D3146401CA865062085F85D0004F58F
:10236000A164386801F0A3FF80202060A1E7D4F8C1
:102370000805C0069DD595F83F00032803D020B17D
:10238000022802D011E0A96505E0A965386960B9A5
:10239000032085F85D00D4F80C0540F00200C4F875
:1023A0000C053146386801F082FFC4F8088580E7E3
:1023B0002DE9F047026802EB4114D4F808254FF0EC
:1023C0000403520709D5C4F80835D4F80C0540F0C9
:1023D0000200C4F80C05BDE8F087D4F8082501EB2D
:1023E000810596064FF0000200EBC5054FF0020C88
:1023F00015D52023C4F8083595F83D30012BEAD1D6
:1024000085F83D2085F85CC0D4F80C2542F0020226
:10241000C4F80C250068BDE8F04701F048BFD4F8C7
:10242000086577064FF0010611D585F85D3085F80F
:102430003D60AA65D4F80C2542F00202C4F80C25D0
:10244000006804F5A16401F032FF402010E0D4F8E8
:102450000875BF050ED5D4F80C2542F00202C4F869
:102460000C25006804F5A16401F021FF4FF4007011
:102470002060B0E7D4F80875FF070FD0AA65D4F83C
:102480000C2542F00202C4F80C25006804F5A16492
:1024900001F00DFF266085F85D609CE7D4F80875B3
:1024A0004FF005095FEA07784FF008070DD5C4F82B
:1024B0000875D4F80C2542F00202C4F80C25006817
:1024C00001F0F5FE85F85D9085E7D4F808854FF0BA
:1024D000100A5FEAC86818D5AA65032285F85D204E
:1024E00095F83D2022B995F83C200AB985F83D6061
:1024F000D4F80C2542F00202C4F80C25006804F55B
:10250000A16401F0D4FE5046B2E7D4F808855FEA32
:1025100008680FD5D4F80C2542F00202C4F80C2547
:10252000006804F5A16401F0C2FE062085F85D0094
:1025300080209DE7D4F808855FEA485812D5D4F882
:102540000C2542F00202C4F80C25006804F5A164D1
:1025500001F0ADFEC4F800A04FF48060206085F863
:102560005D7038E7D4F80875BF0796D5D4F80C75B8
:1025700027F00207C4F80C7595F85D70012F0AD09A
:10258000032F17D0042F15D0052F16D0062F17D0E4
:10259000082F15D027E085F85C6095F83F20022AC7
:1025A00001D0032A1FD195F8512082F0010285F84D
:1025B000512018E085F85CC015E085F85C9012E0C9
:1025C000AE6D761CAE65032E03D9AA6585F85C3026
:1025D00001E085F85CC0D4F8002522F0804242F08A
:1025E0000042C4F80025C4F808C595F85C20FEF741
:1025F00095F8F0E67CB504680546D4F840040190EF
:10260000D4F8400420F02E0000900198800709D5EE
:102610000198C00702D02846FEF71AF8009840F04B
:10262000020000900198000724D5009840F00800AF
:102630000090019840071AD5A869022803D0E868DD
:1026400001280CD00FE00198C0F34140022828680F
:1026500003D0012102F01CF805E00221FAE74EF652
:102660006020C4F804042846FEF7C4F902E02846B6
:10267000FEF7BCF901988006009802D540F02000D2
:102680000090C4F840047CBD2DE9F041024600688A
:102690000646016AC1F3434301F00F07C1F30A1470
:1026A000022B25D1002C23D007EB870102EBC105BB
:1026B000696C00291CD0224602F009F8686C20449D
:1026C0006864E86C2044E86406EB4710D0F8101505
:1026D000084A11420CD0D0F8001521F0804141F099
:1026E0000041C0F8001515F8500F80F00100287067
:1026F000BDE8F0810000F81FFEE7000070B5154945
:102700000268154B4FF040248A4201D11A4600E07E
:102710002246D568C26A961CC6621580428E521E39
:102720004286428E002A14D102688A4201D119469B
:1027300000E02146496821F0600100D0234659603D
:10274000418D002905D14FF0010180F84110FEF7BD
:1027500079FB70BD003800400034004070B5416A1C
:10276000144B8A1C426205680988134A4FF04024C2
:102770009D4201D1154600E02546E960418D491E84
:102780004185418D002914D10168994201D111463A
:1027900000E02146496821F0A00100D022465160A6
:1027A000418E002905D14FF0010180F84110FEF75C
:1027B00049FB70BD00380040003400407CB5016822
:1027C00004468868009094F841000125042834D11B
:1027D0000098C00718D04868C043400614D4C968A0
:1027E0002046E26A1180E16A891CE162618E491E1D
:1027F0006186618E41B901684A6822F060024A60D0
:1028000080F84150FEF722FC0098400615D520685C
:102810004168C943890610D4416821F060014160D4
:102820002068C1688068019084F84150606C40F075
:10283000020060642046FEF706FB94F8410003287E
:1028400034D10098800719D521684868C043000634
:1028500014D4626A20461288CA60616A891C616267
:10286000618D491E6185618D41B901684A6822F018
:10287000A0024A6080F84150FEF7E9FB009800078B
:1028800014D520684168C94389060FD4416821F0F6
:10289000A001416020688068009084F84150606C1D
:1028A00040F0040060642046FEF7CDFA7CBD0000D5
:1028B00020B1002201210248FDF7BEBE0122F9E746
:1028C000000802402DE9F04786B014216846FDF764
:1028D000C1FC4E480024016841F01001016001680C
:1028E00001F010010591016841F0040101600168E7
:1028F00001F004010591016841F080010160016867
:1029000001F080010591016841F001010160016859
:1029100001F001010591016841F0020101600168C7
:1029200001F002010591016841F0080101600068B1
:10293000DFF8DCA000F008000590002208215046D6
:10294000FDF77AFEDFF8CC80012211464046FDF704
:1029500073FEDFF8C490002210214846FDF76CFE9C
:10296000082601250096CDE9015469465046039496
:10297000FDF786FD0095CDE9015469464046039474
:10298000FDF77EFD00960226CDE901640527CDE91D
:10299000034769464046FDF773FD20480095CDE9A1
:1029A000010469461E48FDF76BFD0420CDE90004D3
:1029B000DFF87080694640460294FDF761FDA80289
:1029C0000090CDE90164CDE9034769464046FDF733
:1029D00057FD10200090CDE9015469464846039404
:1029E000FDF74EFD2020CDE90004694648460294DB
:1029F000FDF746FD0C480096CDE9010469465046B6
:102A0000FDF73EFD06B0BDE8F0870000303802401B
:102A10000010024000080240000C024000001110AB
:102A20000000024000040240000012100D4810B5E2
:102A30000B4901600C49416000214FF480428160E4
:102A4000C0E9031241618161C1610162FEF706F8CC
:102A5000002803D0BDE81040FDF7D4BC10BD000035
:102A60000054004040000020A08601000B490C48A3
:102A700010B54A15C0E9001200218160C0E90312B7
:102A8000084AC0E90521C1610162FEF7DDF90028AD
:102A900003D0BDE81040FDF7B5BC10BD003C0040C0
:102AA00094000020007701000F4810B50D49016027
:102AB0004FF48271416000218160C1604FF4007267
:102AC0000161C0E90512C1610162416281620A21AE
:102AD000C162FEF7BDFE002803D0BDE81040FDF73F
:102AE00091BC10BD00300140DC00002030B58DB03D
:102AF00000240794089409940A940B941C216846B6
:102B00000C94FDF7A7FB2E482C4942F2CF05C0E9F3
:102B10000014C0E9024504618461FEF76BFF08B14F
:102B2000FDF770FC4FF48050079007A92448FEF78A
:102B30009DFF08B1FDF766FC2148FFF74AF908B18F
:102B4000FDF760FC0B940BA91D480C94FEF70AFFDF
:102B500008B1FDF757FC60200090CDE90154002238
:102B6000694617480494FFF7CCF808B1FDF74AFC12
:102B700040F633000190042269461148FFF7C1F87E
:102B800008B1FDF73FFC41F2670001900822694659
:102B90000B48FFF7B6F808B1FDF734FC41F69B008F
:102BA00001900C2269460648FFF7ABF808B1FDF723
:102BB00029FC0348FFF77AF80DB030BD000800404B
:102BC000340100201CB500240F4800940D490194E5
:102BD000016042F20F71C0E9011442F2CF01846139
:102BE000C160FEF707FF08B1FDF70CFC00946946D1
:102BF00005480194FEF7B6FE002801D0FDF702FC5F
:102C00001CBD000000140040740100200C4810B5E9
:102C10000A4901604FF4E1314160002181600C22DA
:102C2000C160C0E904128161C161FFF77DF900282C
:102C300003D0BDE81040FDF7E5BB10BD00440040E7
:102C4000B401002010B501220B490C4800F08DFFA3
:102C500008B1FDF7D7FB0A49084801F00FFA08B19F
:102C6000FDF7D0FB054801F04CFA002803D0BDE881
:102C70001040FDF7C7BB10BD19410008F40100204A
:102C800018000020014801F0E5B80000F401002020
:102C9000FEE770470148FDF78DBD0000CC05002020
:102CA00070477047FEF7D4B970B596B030216846CA
:102CB000FDF7D0FA14210CA8FDF7CCFA00251F4827
:102CC0001195129513951495016841F0805101609A
:102CD000006800F0805015901948016841F4804167
:102CE00001600068012600F4804015903004CDE9B1
:102CF000006002248001CDE9064004200890A8204D
:102D0000CDE9090407200B906846FEF7F3FB0CA9F8
:102D10000F2081E831004FF4A0500F90E002109096
:102D200005210CA8FEF7FCFAC020CDE9120411968B
:102D300011A8FEF757FA16B070BD000040380240E7
:102D4000007000400548016841F4700101600349CA
:102D50004FF00060803908607047000088ED00E0A7
:102D60000148FEF7EFBE000074010020F0B50268D4
:102D7000254C264D264E274F274B4FF0804CA04226
:102D800009D0604507D0A84205D0B04203D0B84270
:102D900001D0984204D122F0700E4A6842EA0E0235
:102DA000A0421BD0604519D0A84217D0B04215D020
:102DB000B84213D0984211D0184DA8420ED0184DE9
:102DC000A8420BD0174DA84208D0174DA84205D0F5
:102DD000164DA84202D0164DA84203D122F44075E8
:102DE000CA682A434D6922F080022A4302608A6839
:102DF000C2620A688262A04201D0984201D1096988
:102E0000016301214161F0BD000001400004004068
:102E100000080040000C0040000401400040014058
:102E2000004401400048014000180040001C0040E0
:102E30000020004010B5846842EA032224F47F4455
:102E40000A432243826010BD826822F070020A4366
:102E500042F0070181607047F0B5026A22F001027A
:102E60000262036A42688469124E24F073050C689A
:102E70002C4323F002058B682B430D4DA84201D053
:102E8000B04205D123F00807CB683B4323F004038D
:102E9000A84201D0B04205D14D6922F440721543D9
:102EA0008A692A4342608461496841630362F0BDD4
:102EB0000000014000040140F0B5026A22F0100257
:102EC0000262026A436884690D6824F4E64444EAB5
:102ED00005248D6822F0200242EA05120F4D104EA3
:102EE000A84201D0B04206D1CF6822F0800242EA67
:102EF000071222F04002A84201D0B04207D14D692A
:102F000023F4406343EA85038D6943EA8503436004
:102F10008461496881630262F0BD000000000140E5
:102F200000040140F0B5026A22F480720262026A73
:102F30004368C46922F4007224F073050C68124ED1
:102F40002C438D6842EA05220E4DA84201D0B042C2
:102F500006D1CF6822F4006242EA072222F480629E
:102F6000A84201D0B04207D14D6923F4405343EA4F
:102F700005138D6943EA05134360C4614968C16361
:102F80000262F0BD000001400004014030B5026A59
:102F900022F480520262046A4268C3690D6823F415
:102FA000E64343EA05238D6824F4005444EA0534DB
:102FB000084DA84202D0084DA84204D14D6922F420
:102FC000804242EA85124260C3614968016404623A
:102FD00030BD0000000001400004014010B5036A4C
:102FE000046A24F001040462846924F0F00444EAD1
:102FF000021423F00A020A438461026210BD10B574
:10300000036A23F0100303628369046A23F47043A4
:1030100043EA023224F0A00343EA01118261016213
:1030200010BD10B5806B0021C185C184FEF7F0FE94
:1030300010BD0168CA6822F49072CA6001684A69CA
:1030400022F001024A61202180F83A10704710B541
:1030500090F83A10222901D0022010BD8168B1F504
:10306000805F11D00169002901681FD0496801F013
:103070007F03816A4A1C82620B70C18D491E09045C
:10308000090CC18518D02BE00269816A002A026808
:10309000526805D0D2B20A80816A491C8162ECE78D
:1030A000C2F308020A80816A891CF7E74A68816ACC
:1030B0004B1C83620A70E0E70168CA6822F02002B4
:1030C000CA600168CA6822F48072CA6001684A69ED
:1030D00022F001024A61202180F83A10FEF7B4FF85
:1030E000002010BD2DE9F041044600680169E26846
:1030F00021F44051114301612169A068E26908434C
:103100006169114308432168CA6849F20C639A4314
:103110000243CA6020684169A26921F440711143E9
:103120004161E069192764253226B0F5004F354A20
:10313000354920684FF0000806D0884201D09042FF
:1031400036D1FEF797F935E0884201D0904202D19E
:10315000FEF790F901E0FEF77DF961684A18A0FBDF
:10316000070148EB0803FDF72BF80146B0FBF5F02B
:103170000201B1FBF5F06FF01803584301EB80003A
:1031800006EBC000B0FBF5F000F0F80002EB4002E7
:10319000B1FBF5F0584301EB800006EBC000B0FB3B
:1031A000F5F000F00700216810448860BDE8F08168
:1031B000FEF750F961688B0F8A00A0FB0701FCF74E
:1031C000FFFF0146B0FBF5F06FF01802504301EB32
:1031D000800006EB0010B0FBF5F000F0F002B1FB50
:1031E000F5F002EB0012B1FBF5F06FF01803584355
:1031F00001EB800006EB0010B0FBF5F000F00F00D3
:10320000D1E70000001401400010014090F839108F
:10321000212901D0022070478168B1F5805F016AE1
:103220000BD04A1C0262026809785160C18C491EA9
:103230000904090CC1840ED017E009880268C1F3A3
:103240000801516001690029016A02D0491C01622C
:10325000ECE7891CFBE70168CA6822F08002CA60BB
:103260000068C16841F04001C160002070472DE94D
:10327000F041984617460E460446069D1DE0681C20
:103280001BD02DB1FDF7DEF9A0EB0800A84214D940
:103290002068C16821F4D071C1602068416921F0C3
:1032A00001014161202084F8390084F83A000020AF
:1032B00084F838000320BDE8F0812068006836EA11
:1032C000000004D00020B842D9D00020F3E701204C
:1032D000F9E700000148FEF79DBD0000B4010020A1
:1032E00010B500224FF6FF7300EB8204B4F884435C
:1032F00024040BD49A4207D002F00F0300EB8300A2
:1033000041F40041C0F88413D0B210BD521CD2B2B7
:103310000B2AE9D31A46F7E77FB51C46012501AE13
:103320000023009586E80E0002232A46214600F07D
:1033300007FD04B0002070BD7FB51D4690F81D3319
:10334000089C03B100240123CDE90031CDE902241A
:1033500002230022294600F0F3FC04B0002070BDD7
:1033600070B50446D0F87C03C16920464031FDF7B2
:103370004AF8050004D1D4F8D4230221204690470E
:10338000284670BD70B50546D0F87C030026C46998
:10339000217839B1284600F027F92178284600F035
:1033A000ABF92670217B39B1284600F01DF9217B4D
:1033B000284600F0A1F92673617B39B1284600F058
:1033C00013F9617B284600F097F96673D5F87C0302
:1033D000C06920B101F02CFAD5F87C03C661002049
:1033E00070BDFEB5022205460123114600F062F9C8
:1033F0000646FF2841D0022E3FD20146284600F063
:103400004BFED0BB502001F075FAD5F87C13044672
:10341000C861200031D05021FCF71CFF06EB86006C
:1034200000EBC60005EB400191F84E03020603D500
:103430006070B1F85003608161782846FFF750FF53
:103440002070014695F81D03638903228DE80D0065
:1034500095F81C336278284600F083FC217800221E
:10346000284600F04BFC00231A460A21284600F0AB
:1034700021F9FF2801D0022801D30220FEBD00EB74
:10348000800101EBC00005EB400090F84E130A06E6
:1034900004D5E173B0F85013618303E0A173B0F871
:1034A0005013218390F856130A0604D5E173B0F83F
:1034B0005803608303E0A173B0F858032083A17B15
:1034C0002846FFF70DFF6073E17B2846FFF708FFF2
:1034D0002073208B95F81D1302260091CDE9016021
:1034E00095F81C33A27B617B284600F03AFC608B88
:1034F00095F81D130091CDE9016095F81C33E27B2E
:10350000217B284600F02DFC002084F84C00024668
:10351000617B284600F0F2FB217B0022284600F068
:10352000EDFB0020FEBD70472DE9F0410546D0F8C7
:103530007C0301270026C4694FF0040894F84C006E
:1035400005284AD2DFE800F00305163B42000027B9
:1035500043E02122A16C2A7420226A746E82AE821A
:1035600007222846EA8200F062F848B9022084F86F
:103570004C0032E004F140012846FCF744FF20B142
:1035800001282AD084F84C8027E084F84C60A06C95
:1035900094F84410027991421FD194F84610827930
:1035A00091421AD194F845104279914215D1216C7B
:1035B0000068814211D12846FFF7B5FF0DE028468B
:1035C000FCF7BAFE2846FCF783FE06E000212846F9
:1035D00000F00FF808B984F84C603846BDE8F08177
:1035E000704700207047704710B500F0DDFA0020EA
:1035F00010BD8278012A07D102220274012242748E
:10360000002242828182C2820022114600F00FB85D
:103610007FB51C46012501AE0023009586E80E000B
:103620002A46214600F08CFB04B0002070BD70B526
:1036300004460120A3780546012B0BD0022B08D1AC
:10364000204600F014F958B1032809D0022800D10F
:10365000A57070BDA160A28125760221A17070BD08
:10366000A5700021217670BD7FB51D4690F81D33F1
:10367000089C03B100240123CDE90031CDE90224E7
:1036800000231A46294600F05BFB04B0002070BD01
:103690001FB500231446CDE900310822CDE90223ED
:1036A0001A46214600F04CFB04B0002010BDFCF788
:1036B000C7BE000070B50546002005F54E7500BF79
:1036C00000EB800404EBC00405EB4404E67B0A3401
:1036D0008E4201D0FF2909D1A679964201D0FF2A56
:1036E00004D1E4799C4206D0FF2B04D0401CC0B228
:1036F0000228E5D3FF2070BD0B2907D200EB810023
:10370000B0F88413C1F30E01C0F884130020704791
:1037100030B48578029C012D0FD141F080010174F5
:103720000621417403214282B1EB122F02D140F2F3
:10373000094100E000218182C482224630BC194642
:10374000FFF775BF0A8803781A440A800178084495
:103750007047F8B50E4600F11C05009104462B4653
:103760004FF400720021FFF7D3FF070005D1324666
:10377000294604F54E7000F0FEFA3846F8BD38B51B
:103780000D460091044600F58E734FF480720021BF
:10379000FFF7BEFF002839D194F81C1184F82613D6
:1037A00094F81D1184F82713B4F81E11A4F82813F7
:1037B00094F8201184F82A1394F8211184F82B131B
:1037C00094F8221184F82C1394F8231184F82D1303
:1037D000082D1BD9B4F82411A4F82E13B4F826111F
:1037E000A4F83013B4F82811A4F8321394F82A116D
:1037F00084F8341394F82B1184F8351394F82C11B1
:1038000084F8361394F82D1184F8371338BDF8B5C1
:103810001C461646009341F4407200F58E731D4617
:103820000021FFF775FF002814D16978032911D111
:1038300029788A1EA24200D814460021A2B2AD1CEB
:1038400004E06B5C891C06F8013B89B29142F8D315
:1038500000213170F8BD01004FF0000004D00129B3
:1038600001D0022901D002207047012070472DE9C4
:10387000F84F0125017E04460B26092728464FF004
:1038800007084FF0050A4FF00D090C2919D2DFE89F
:1038900001F0B4060E26313C48606B7C899A62794F
:1038A00004F110012046FFF7F3FE022012E06179D7
:1038B000204600F0C5F9012804D0042871D0022860
:1038C0007FD09AE0207CE18A00F0800021B180283E
:1038D0003AD10320207690E0802814D02EE0D4F84E
:1038E000C403E0812379A2892046A168FFF790FEF6
:1038F0000420EFE72179204600F0A2F9012802D048
:10390000052840D056E0277677E000906379A289B9
:103910002046A168FFF7A8FED4F8C403E081062082
:10392000D8E76179204600F08BF9012806D00528F8
:1039300007D0022808D0042809D05EE084F8188057
:103940005BE00C2020761EE084F818A055E0267677
:1039500052E00022237911462046FFF759FED4F8A1
:10396000C403E0810820B5E72179204600F068F91A
:10397000012804D0042824D0052804D03DE084F890
:103980001890002539E0032537E000900022637984
:1039900011462046FFF768FED4F8C403E0810A20F0
:1039A00098E70EE06179204600F04AF9012804D03A
:1039B0000228A8D0042804D01FE0002584F818901D
:1039C0001BE0267619E0617E491CC9B261760229A6
:1039D00002D82076A07010E0D4F8D4230621204627
:1039E00090470025657661792046FFF785FE2179AD
:1039F0002046FFF781FE257002252846BDE8F88F96
:103A00002DE9FE4304460126407800250D27B046E7
:103A100004F58E7208280CD2DFE800F0042A3C6816
:103A20006F86929908212046FFF7A9FE10B103285E
:103A30000DD097E094F82D03A07184F8018094F8DC
:103A40001D130091CDE9015094F81C3338E094F82F
:103A50001E03401CC0B284F81E03032818D86179E5
:103A60002046FFF749FE21792046FFF745FE59E041
:103A700012212046FFF783FEA8BB022047E000BFCB
:103A800094F81E03401CC0B284F81E03032840D9DA
:103A9000277067E00121204600F009FB10B10328E0
:103AA00022D05FE00220FFF702FE84F81C8303208F
:103AB0006070A07994F81D13CDE90015434602907B
:103AC00021798022204600F04CF9A07994F81D134A
:103AD0000091CDE9015094F81C3361790022204611
:103AE00000F03FF93EE00EE027702EE0092120466D
:103AF000FFF72FFE38B9042009E0B4F83A13204646
:103B0000FFF727FE10B10328BAD02BE00520607024
:103B100028E061792046FFF7EFFD21792046FFF785
:103B2000EBFD657025701DE094F8341306250AE05E
:103B3000FF232046FFF76BFE38B1032805D011E0C4
:103B400094F8351307250029F2D165700AE094F83E
:103B5000361331B1FF232046FFF759FE08B1032881
:103B600000D100263046BDE8FE8370B50E46040045
:103B700018D084F8CC230025C4F87C53C4F88053B3
:103B800004F54874FCF712FCE57025706570A570AB
:103B9000A4F548740EB1C4F8D463204600F064F86C
:103BA000002070BD022070BD10B5D0F8D003FCF726
:103BB0006AFDBDE81040FFF74EBE012180F82013DA
:103BC000002180F8211380F822130846704710B5B1
:103BD0000446012084F82103002084F8200384F89F
:103BE0002303204600F0A3F821792046FFF784FD47
:103BF00061792046FFF780FD002010BD10B590F8D8
:103C0000CC03012802D10846FEF752FEC820FCF77B
:103C100017FC002010BDD0F8D003FCF72EBD10B566
:103C20000124D0F8D003FCF71EFD20B1012805D0F7
:103C3000022803D101E0002400E00224204610BD48
:103C4000D0F8D003FCF712BDD0F8C413491CC0F85B
:103C5000C41301780B2905D1D0F87C13002901D0B9
:103C6000896908477047000010B5044690F8CC03F6
:103C700001281CD10F484FF0A0410022C0F8C042DB
:103C8000C4F8D0030160082181600121C0E903125A
:103C90000221C0E90612FCF725FE08B1FCF7B2FBD1
:103CA0000448FCF7DDFC0146204600F024F8002023
:103CB00010BD0000CC050020FEB508AF97E87000ED
:103CC0008DE87000D0F8D003FCF7EFFCBDE8FE40B3
:103CD000FFF7C1BD002180F823137047012180F850
:103CE0002313704710B5D0F8D003FCF787FEBDE86A
:103CF0001040FFF7B0BDC0F8C4137047D0F8D00330
:103D000001EB810100EBC10090F83B1011B180F88C
:103D1000502001E080F851200020704710B5D0F805
:103D2000D003FCF772FEBDE81040FFF794BD10B55C
:103D3000D0F8D003FCF77FFEBDE81040FFF78BBD45
:103D40002DE9FF410DF1280898E8F0008DE8F0001A
:103D5000D0F8D003FCF7E3FC04B0BDE8F041FFF776
:103D60007ABDFEB508AF97E870008DE87000FFF7E8
:103D7000A3FF0020FEBD2DE9F84105460B782B700E
:103D80004B786B704B886B800B792B714B796B7117
:103D90008B79AB71CB790846EB710027097A2972D0
:103DA000092A54D90921ADF800104BE06946FFF704
:103DB000C9FC4178042943D107EB870101EBC70116
:103DC00005EB4108017888F80A10417888F80B1053
:103DD000817888F80C10C17888F80D10017988F87E
:103DE0000E10417988F80F10817988F81010C17988
:103DF00008F10A0488F81110017A2172002615E0F2
:103E00006946FFF79FFC417805290FD108EBC601F1
:103E100002780A7542784A7582788A75C278CA75BE
:103E200082880A838279761C8A76F6B22179B14239
:103E300004D96A88BDF800108A42E1D87F1CFFB21D
:103E4000022F04D26988BDF800209142AED8BDE8A7
:103E5000F8810000FEB5022104468DF8001094F8A8
:103E600021230020012A01D10322227022780D266D
:103E7000082700250C2A17D2DFE802F0061734DEE7
:103E8000F869C27C848C9AD794F8200300280BD060
:103E900001202070C820FFF70AFC2046FFF722FF10
:103EA00084F81C53C4F8C853E0E094F823030128B5
:103EB0000DD0D4F8C803B0F57A7F0CD994F81F035D
:103EC000401CC0B284F81F03032870D86DE084F84A
:103ED0001F532170CAE00A30C4F8C8030A20FFF754
:103EE000E6FBC3E0D4F8D42312B104212046904766
:103EF0006420FFF7DCFB2046FFF791FE84F81D03EA
:103F00000520207000212046FFF7EAF9607180212A
:103F10002046FFF7E5F920710146A07994F81D23AA
:103F20000092CDE9015094F81C3380222046FFF71F
:103F300018FFA07994F81D130091CDE9015094F871
:103F40001C33617900222046FFF70BFF8EE02046EC
:103F5000FFF756FD8DF800009DF80000002808D1FD
:103F600084F8245394F83703012801D0072058E03F
:103F700027707BE0D4F8D423002A77D00121204693
:103F80009047F5E794F83D13204600F09EF8B0BB4B
:103F9000092046E094F83F034FF00A05800604D557
:103FA0000121204600F09FF848BB25705EE03AE012
:103FB000D4F8801319B3C4F87C5394F8471300BFA6
:103FC00004EB8002D2F8782312798A4206D104EBFE
:103FD0008000D0F87803C4F87C0304E0401C10F0A3
:103FE000FF00EDD02846F0B1816820468847D0B95F
:103FF00006202070D4F8D42303212046904735E0D2
:10400000D4F87C0378B10169204688478DF8000018
:104010009DF8000020B19DF80000022803D025E0A3
:104020000B20207022E0267020E0D4F87C03E8B159
:1040300041692046884719E084F821532046FCF75F
:10404000B5F9D4F87C0320B1C16820468847C4F88C
:104050007C53D4F8D42312B105212046904794F81C
:104060002203012804D02046FFF758FE0020FEBDA1
:1040700084F82253204600F044F8F7E7002211B1FB
:10408000D0F8803313B10222104670470123C0F8E4
:104090008033C0F87813F7E70246002092F83C33EB
:1040A0008B4202D982F8241370470220704782782D
:1040B000012A06D1002202740523437441828282C0
:1040C000C28200221146FFF7B2BA8278012A06D1D5
:1040D000002202740923437441828282C282002238
:1040E0001146FFF7A4BA8278012A06D10022027491
:1040F0000323437441828282C28200221146FFF769
:1041000096BA10B50446FFF709FE01212046FFF7D5
:1041100075FD002010BD000001290AD005480229C4
:1041200006D0042903D0052903D1032100E0012191
:10413000017070470100002070B5044606990A9E80
:10414000049D0D98012916D0E06840F04000E06021
:10415000204600F02BF8A16B1EB321F48031A1633F
:10416000012D07D1A16841F00601A160A16841F0CD
:104170002001A16070BDA16B21F48031A163E168D1
:10418000094A1140E160E16821F44011E160012831
:1041900003D1E06840F48010E060204600F006F8AB
:1041A000DEE741F48031DAE7BFFFBDFF01220C49B1
:1041B00002E0521C8A420BD80369002BF9DA02692B
:1041C00042F001020261012204E0521C8A4201D93C
:1041D000032070470369DB07F7D100207047000018
:1041E000400D0300816821F00101816000207047CB
:1041F00000EB4110064AC0F81025D0F8001521F058
:10420000804141F00041C0F80015002070470000D7
:104210000000088008B5D0F8402422F02E02009259
:10422000D20405D4012909D1009941F4805103E059
:1042300021B9009921F48051C0F84014002008BD34
:10424000816841F001018160002070470021102247
:104250000261054A491C914201D903207047036954
:10426000DB06F7D400207047400D03000022202316
:1042700043EA811101610549521C8A4201D9032098
:10428000704703699B06F7D400207047400D030078
:10429000D0F8080480B2704708B5D0F84004009008
:1042A000C0F3414008BD406900F00100704700EBD9
:1042B0004111D1F800254FF47A73C2F381426AB1FB
:1042C000022A0BD0D1F8002542F08042C1F8002527
:1042D000D0F8100410F47F0F2ED009E0D1F800259B
:1042E00042F08042C1F80025C06A10F47F0F07D069
:1042F000D1F8000540F00040C1F8000500207047EB
:10430000D1F8000520F00040C1F80005D1F8000503
:1043100040F00040C1F80005D1F8000520F400404D
:10432000C1F80005012002E0401C9842E6D8D1F80F
:104330000025002AF8DBE1E7D1F8000520F0004075
:10434000C1F80005D1F8000540F00040C1F80005B3
:10435000D1F8000520F40040C1F80005012002E07A
:10436000401C9842CAD8D1F80025002AF8DBC5E7DE
:104370002DE9F0430026DDE9078500EB4114771EA7
:10438000DDF82490C4F80875CDB1012D32D0022D8E
:1043900015D0032D27D00126D0F8187401F00F0C8A
:1043A000012101FA0CF10F43C0F81874816941F042
:1043B0000071816110062AD54FF4004028E040F2D8
:1043C0009D47C4F80C75170605D500BFD4F80C75C9
:1043D00047F4807718E0C76BFF05DDD5D4F80C757E
:1043E00047F0600710E040F29D67C4F80C751706AF
:1043F000ECD4D1E740F22527C4F80C751706CBD5CD
:10440000D4F80C7547F4C077C4F80C75C4E70020E5
:10441000B8F1020F18D000214FF0FE5707EA83537E
:104420004FF4F04707EAC22213434FF4402202EA56
:1044300085421343C9F30A02134303430B43C4F8F1
:104440000035032D03D008E04FF40031E4E7D4F841
:10445000000540F00050C4F800053046BDE8F08388
:10446000D0F8140480B27047F8B54C78C56B4FF49F
:104470008073ED054FF0000715D50D799DB912B188
:10448000012A07D00FE04D79012D0CD12146FFF70D
:10449000AFFE8CE000EB4415D5F80C6526F0600605
:1044A000C5F80C654F710E695EB10D892E44761EFC
:1044B000B6FBF5F6B6B29E4204D91E462B020B613E
:1044C00000E00126CB78CBB30B897343C1F81030E1
:1044D0006FF06045C3F3120305EAC6452B438D7A9E
:1044E0004FF0C04606EA45752B4300EB44140546E1
:1044F000C4F8103512B1CB68C4F81435D5F80834B7
:10450000D4F8005543F3000325F00055C4F80055D6
:10451000D4F800555B1C45EA4373C4F80035D4F861
:104520000055244B1D601D6825F080451D60CD7829
:10453000002D1D6805D045F4004504E0FFE70B6938
:10454000C6E725F400451D601D6845F000451D6067
:104550001B68C4F8003552BBCA7842BB0A6932B343
:10456000CB7933B1012B0FD0022B02D0032B17D103
:104570000AE0D21CC36AC2F38F029BB293420FD2ED
:10458000826942F020020AE0D21CD0F81034C2F353
:104590008F029BB2934203D2826942F080628261B1
:1045A00000970A8A93B24A78C96800F00EF9002091
:1045B000F8BD0000040000202DE9F0410025DDF8E1
:1045C000188017460446C0F8005E806B40F4001067
:1045D000A063A06B20F40020A063A06B20F48020D7
:1045E000A063E06BC00501D5012B04D0D4F8000412
:1045F00020F0040103E0D4F8000440F00401204658
:10460000C4F800141021FFF731FE2046FFF71EFE0C
:104610000020461E07E000BF04EB4011C1F808650A
:10462000C1F80C55401C8742F6D801212046FFF7FF
:10463000F1FDC820FBF704FFA5616661E06BC005D2
:1046400006D54FF4007060620C48A0620C4804E08C
:10465000802060620B48A0620B48C4F80001B8F1EA
:10466000000F03D1A06940F01000A061A0690749C4
:104670000843A0610020BDE8F081000000020001B5
:104680000003E00080006000E0004000080020A37C
:10469000D0F8002422F00302C0F80024D0F800244F
:1046A00001F003031A43C0F80024012902D00229B3
:1046B00003D006E04BF6803101E041F27071C0F8A2
:1046C0000414002070474169806908407047D21C7B
:1046D00010B59308002200F5805002E00468521CD7
:1046E00010C19A42FAD3084610BD38B50446D0F836
:1046F000400420F02E00009040F48070C4F8400484
:10470000642004F58864FBF79BFE009820F4807019
:1047100020600A20FBF794FE002038BD10B5C26867
:1047200022F0C042C260012902D029B1012010BD8F
:10473000C16841F0005102E0C16841F08041C160B0
:104740003220FBF77DFE002010BD000030B504468E
:104750008068002520F00100A06010212046FFF7AE
:1047600085FD2046FFF772FD5FF0000004EB40116D
:10477000D1F8002522F0802242F08042C1F80025C5
:10478000401C0F28F2D900204FF47A7304EB40113B
:10479000D1F8002522F4004242F04042C1F8002541
:1047A0006D1C9D4203D8D1F80025002AF8DB401C7F
:1047B0000F28EBD94FF0FF30C4F814046061A068F3
:1047C00040F00100A060002030BD10B5029C64B92B
:1047D000DB1C9C0800EB0230002300F5805002E057
:1047E00004C902605B1CA342FAD3002010BDFEE79F
:1047F0000907090E002804DB00F1E02080F800140E
:10480000704700F00F0000F1E02080F8141D7047A1
:1048100002E008C8121F08C1002AFAD17047704789
:10482000002001E001C1121F002AFBD170470000E7
:1048300010B5002821D0114B0022001F196803E099
:10484000814203D80A4649680029F9D152B1136858
:10485000841A9C4204D1006818441060104602E09B
:10486000506000E0186039B102680B1A934203D11E
:104870000B681A4402604968416010BD380000208E
:10488000FCF7EEFBFEF710FAFEF71CF8FEF7CEF889
:10489000FEF7ECF8FEF708F9FEF7D4F9FEF792F907
:1048A000FEF724F9FEF7B2F9002211460620FCF7C4
:1048B00039FC0620FCF728FC002211463720FCF7C3
:1048C00031FC3720FCF720FC002211462620FCF7A3
:1048D00029FC2620FCF718FC012204490448FDF7B6
:1048E00089FB00BFFEF7CEF9FCE7000000000020C6
:1048F000B4010020F0B50B30154D20F00701002465
:10490000144A0FE003688B420BD38B4205D95E1A21
:1049100043184768C3E9006700E04368136002C0BA
:1049200004E0021D10680028ECD12046002802D1C6
:10493000286808B10020F0BD064A07481060074A01
:10494000121A22F00702C0E9002401202860D7E7EC
:104950003C0000203800002094080020900A00202D
:10496000000000000000000001020304060708091F
:104970000000000001020304434443009C49000876
:10498000000000204000000010480008DC4900083A
:1049900040000020500E00002048000800000000E9
:1049A00000000000010000001000000000000000F6
:1049B0000024F4007849000802000000E3330008F6
:1049C000853300086133000829350008E335000805
:0C49D000000000000000000000000000DB
:040000050800018965
:00000001FF
